:100000003711000013054006EF000003EF00800ADF
:10001000EF00C02393020500EF00C009EF000023AA
:10002000130305001385020093050300EF0000444D
:10003000EF00C0156FF01FFD1301C1FF2320110059
:100040009303050003C5030063080500EF00805516
:10005000938313006FF01FFF832001001301410001
:10006000678000000A0D202D20456E7465722063A4
:10007000616C633A202D200A0D000A0D456E7465EF
:1000800072206F70657261746F72200A0D000A0D24
:10009000526573756C74203D200041190000007298
:1000A0006973637600010F000000057276333269D0
:1000B00032703000130181FE232A110023288100B1
:1000C00023269100232421012322510023206100B3
:1000D000130400009304000013091000EF00805285
:1000E000930F0500EF00004C13850F009302A00052
:1000F000630A55049302D00063065504930200027C
:1001000063025504630C09009302D0026318550082
:1001100093041000130900006FF05FFC1309000046
:1001200093020003E34C55FA93029003E3C8A2FA4A
:100130001375F50013030400131444003364A40082
:100140006FF0DFF96384040033048040130504007A
:100150000323010083224100032981008324C1007D
:100160000324010183204101130181016780000004
:100170004119000000726973637600010F000000EE
:10018000057276333269327030000000130141FF8E
:10019000232411002322510023206100B7014400D1
:1001A00023A2A1001305100023A6A10023A601008D
:1001B0009302100003A3410133735300E30A03FECB
:1001C00003A501016F004000930505001305A00081
:1001D000EF00403D1305D000EF00C03C1385050043
:1001E000130E80009382050093D2C20093F2F200B6
:1001F0009382020313850200EF00C03A93954500F5
:10020000135E1E0063040E006FF0DFFD1305A000F7
:10021000EF0040391305D000EF00C0380323010080
:1002200083224100832081001301C1006780000008
:100230004119000000726973637600010F0000002D
:10024000057276333269327030000000130141FFCD
:10025000232411002322510023206100B70146000E
:1002600023A2A1001305100023A6A10023A60100CC
:100270009302100003A3410133735300E30A03FE0A
:1002800003A5010103230100832241008320810093
:100290001301C100678000004119000000726973FA
:1002A000637600010F000000057276333269327008
:1002B00030000000130141FE232051002322610081
:1002C000232471002326C1012328E101232AF101FF
:1002D000232C110093050000930F1000939FFF0043
:1002E000939515001303300093035000130EF00094
:1002F000930210009392F200B3F2A2006384020012
:10030000938515001315150093DF1F0063820F04FA
:10031000B3F2C50163D472006F004002B382620081
:10032000B3F2C201130F0000130FFFFF334FEE01B2
:10033000B3E2E201B3E5C501B3F555001313430081
:1003400093934300131E4E00E30C0EF86FF05FFC16
:100350001305A000EF0000251305D000EF00802456
:10036000130E80009382050093D2C20093F2F20034
:100370009382020313850200EF00C022939545008B
:10038000135E1E0063040E006FF0DFFD1305A00076
:10039000EF0040211305D000EF00C02083220100B0
:1003A0000323410083238100032EC100032F010199
:1003B000832F4101832081011301C1016780000067
:1003C0004119000000726973637600010F0000009C
:1003D000057276333269327030000000B701410097
:1003E00023A2A1001305100023A6A10023A601004B
:1003F0009302100003A3410133735300E30A03FE89
:1004000003A50101678000004119000000726973B3
:10041000637600010F000000057276333269327096
:1004200030000000130141FF2320D1002322E1000E
:100430002324F1001307050093870500130500002E
:1004400093F61700638406003305E50093D7170081
:1004500013171700E39607FE8326010003274100C8
:10046000832781001301C10067800000B7014200AB
:1004700023A2A10023A4B1001305100023A6A1000C
:1004800023A601009302100003A34101337353001C
:10049000E30A03FE03A50101678000004119000083
:1004A00000726973637600010F00000005727633F5
:1004B0003269327030000000130181FF2320D10027
:1004C000A320C10013860500930505001305F0FF66
:1004D000630C060293061000637AB6006358C000EE
:1004E0001316160093961600E36AB6FE1305000075
:1004F00063E6C500B385C5403365D50093D61600C5
:1005000013561600E39606FE83260100032611000B
:100510001301810067800000B701430023A2A100FE
:1005200023A4B1001305100023A6A10023A60100F7
:100530009302100003A3410133735300E30A03FE47
:1005400003A5010167800000411900000072697372
:10055000637600010F000000057276333269327055
:10056000300000001301C1FF23205100930210004E
:10057000B392A2009382F2FFE39E02FE8322010067
:100580001301410067800000411900000072697387
:10059000637600010F000000057276333269327015
:1005A00030000000130181FF23205100232261004D
:1005B000B701400023A4A1009302100023A851001A
:1005C0009302000023A851009302002003A301011D
:1005D00033735300E31C03FE832201000323410015
:1005E00013018100678000004119000000726973E7
:1005F000637600010F0000000572763332693270B5
:10060000300000001301C1FF23205100B70140005A
:1006100003A5010193720510E38C02FE93022000F2
:1006200023A8510003A581001375F50F8322010053
:1006300013014100678000004119000000726973D6
:10064000637600010F000000057276333269327064
:02065000300078
:00000001FF
