:10000000372100003721000013058009EF0040650B
:10001000EF00800CEF004022330305001305300A87
:10002000EF000064EF00405EB3030500930EE005AF
:10003000638CD305EF00C05613058009EF004062C2
:10004000EF008009EF00401F330E0500930EA00261
:10005000639AD30133050300B3050E00EF00403C63
:100060006F000003930EF002639AD301330503007F
:10007000B3050E00EF0000446F008001930EB00244
:100080003305C3016F00C00033050300EF00C03328
:10009000EF00400E6FF0DFF60A0D4E756D6265726F
:1000A0003A20000A0D4F70657261746F7220000A69
:1000B0000D526573756C74203D20004119000000DD
:1000C000726973637600010F0000000572763332A7
:1000D0006932703000000000130101FF2326110077
:1000E00023248100232251002320610013040000F7
:1000F000EF008051B30F0500EF00804A33850F00F9
:100100009302A000630C55029302D00063085502CD
:10011000930200026304550293020003E34A55FC74
:1001200093029003E3C6A2FC1375F50033030400A9
:10013000131444003364A4006FF09FFB33050400E4
:100140000323010083224100032481008320C10096
:1001500013010101678000004119000000726973FA
:10016000637600010F000000057276333269327049
:1001700030000000130101FF232611002324510049
:10018000232261002320C101B701440023A2A10062
:100190001305100023A6A10023A60100930210005E
:1001A00003A3410133735300E30A03FE03A50101D6
:1001B000B30505001305A000EF00803E1305D00035
:1001C000EF00003E33850500130E0001B3820500E9
:1001D00093D2020193F2F20093820203338502006C
:1001E000EF00003C93954500135E1E0063040E0073
:1001F0006FF0DFFD1305A000EF00803A1305D0007B
:10020000EF00003A032E0100032341008322810006
:100210008320C10013010101678000004119000023
:1002200000726973637600010F0000000572763377
:100230003269327030000000130141FF23241100A5
:100240002322510023206100B701460023A2A10010
:100250001305100023A6A10023A60100930210009D
:1002600003A3410133735300E30A03FE03A5010115
:100270000323010083224100832081001301C10078
:100280006780000041190000007269736376000105
:100290000F000000057276333269327030000000C2
:1002A000130141FE23205100232261002324710009
:1002B0002326C1012328E101232AF101232C110067
:1002C00093050000930F1000939FFF009395150076
:1002D0001303300093035000130EF000930210003C
:1002E0009392F200B3F2A20063840200938515009A
:1002F0001315150093DF1F0063820F04B3F2C501CD
:1003000063D472006F004002B3826200B3F2C20194
:10031000130F0000130FFFFF334FEE01B3E2E201B2
:10032000B3E5C501B3F555001313430093934300A0
:10033000131E4E00E30C0EF86FF05FFC1305A000D7
:10034000EF0000261305D000EF008025130E80007B
:100350009382050093D2C20093F2F20093820203CB
:1003600013850200EF00C02393954500135E1E0025
:1003700063040E006FF0DFFD1305A000EF004022C4
:100380001305D000EF00C0218322010003234100A8
:1003900083238100032EC100032F0101832F41011C
:1003A000832081011301C101678000004119000011
:1003B00000726973637600010F00000005727633E6
:1003C00032693270300000001301C1FF2320110098
:1003D000B701410023A2A1001305100023A6A1002C
:1003E00023A601009302100003A3410133735300BD
:1003F000E30A03FE03A5010183200100130141006C
:100400006780000041190000007269736376000183
:100410000F00000005727633326932703000000040
:10042000130141FF2320D1002322E1002324F10006
:1004300033070500B38705001305000093F6170086
:10044000638406003305E50093D7170013171700E0
:10045000E39607FE832601000327410083278100DE
:100460001301C10067800000B701420023A2A10070
:1004700023A4B1001305100023A6A10023A60100A8
:100480009302100003A3410133735300E30A03FEF8
:1004900003A5010167800000411900000072697323
:1004A000637600010F000000057276333269327006
:1004B00030000000130181FF2320D100A320C100E0
:1004C00013860500930505001305F0FF630C060273
:1004D00093061000637AB6006358C0001316160026
:1004E00093961600E36AB6FE1305000063E6C500A6
:1004F000B385C5403365D50093D616001356160054
:10050000E39606FE832601000326110013018100F5
:1005100067800000B701430023A2A10023A4B1001B
:100520001305100023A6A10023A6010093021000CA
:1005300003A3410133735300E30A03FE03A5010142
:100540006780000041190000007269736376000142
:100550000F000000057276333269327030000000FF
:100560001301C1FF2320510093021000B392A20097
:100570009382F2FFE39E02FE8322010013014100F9
:100580006780000041190000007269736376000102
:100590000F000000057276333269327030000000BF
:1005A000130141FF23205100232261002324110065
:1005B000B701400023A4A1009302100023A851001A
:1005C0009302000023A851009302002003A301011D
:1005D00033735300E31C03FE832081000323410097
:1005E000832201001301C10067800000411900004F
:1005F00000726973637600010F00000005727633A4
:100600003269327030000000130181FF2320510055
:1006100023221100B701400003A5010193720510C8
:10062000E38C02FE9302200023A8510003A5810061
:100630001375F50F8320410083220100130181000F
:100640006780000041190000007269736376000141
:100650000F000000057276333269327030000000FE
:10066000130181FF2320110023227100B303050031
:1006700003C5030063080500EFF09FF293831300A6
:100680006FF01FFF832341008320010013018100CD
:1006900067800000411900000072697363760001F1
:0E06A0000F00000005727633326932703000B0
:00000001FF
